:100000006F00A03400000000C00C0000D00C000005
:1000100000000000000000000000000000000000E0
:1000200000000000000000000000000000000000D0
:10003000282B0000000000001A0300000000000050
:100040001C0300001E030000200300002203000028
:100050002403000026030000280300002A030000F8
:100060002C0300002E0300003003000032030000C8
:100070003403000036030000380300003A03000098
:100080003C0300003E03000040030000462C00003B
:100090004403000046030000480300000000000085
:1000A0002A86014593F6150091C232958581060690
:1000B000F5F9828000000000634E050263C3050469
:1000C0002E86AA857D5515C285466378B60063568F
:1000D000C00006068606E36CB6FE014563E4C50073
:1000E000918D558D85820582F5FA82808682C93F81
:1000F0002E8582823305A0406347B000B305B0402F
:10010000C1B7B305B0408682653F3305A040828207
:10011000868263C70500634905005D372E858282AC
:10012000B305B040E35B05FE3305A040513F330506
:10013000B04082820000211106CA22C8200823266E
:10014000A4FEAE872315F4FE91472328F4FE09652B
:1001500061282328A4FE032704FF9147631BF702AD
:10016000B7270240984BB72702401367170098CB78
:100170008327C4FE0357A4FE2390E7000965AD2042
:100180002328A4FEB7270240984BB7270240799B4B
:1001900098CB832704FF3E85D24042446101828090
:1001A000611122C220009147232CF4FEB7270240A0
:1001B000DC4713F7170085476316F7008547232CA4
:1001C000F4FE29A8B7270240DC47C18B89C78D47B9
:1001D000232CF4FE21A09147232CF4FE832784FFD7
:1001E0003E85124421018280311106C822C6400892
:1001F0002326A4FE91472328F4FE5D372328A4FE7E
:1002000009A8793F2328A4FE8327C4FEFD172326CF
:10021000F4FE032704FF85476315F7008327C4FE18
:10022000EDF38327C4FE81E795472328F4FE832757
:1002300004FF3E85C240324451018280711122C0C8
:100240004000B72702403707674513073712D8C366
:10025000B72702403797EFCD1307B79AD8C3B72710
:1002600002403707674513073712D8D3B727024034
:100270003797EFCD1307B79AD8D301000244110185
:100280008280711122C04000B7270240984BB727E7
:1002900002401367070898CB0100024411018280D5
:1002A000611122C22000232CA4FE032784FFB7077C
:1002B0000008636DF704032784FFB74700086377DE
:1002C000F704B7270240944BB727024037070200D4
:1002D000558F98CBB7270240032784FFD8CBB72789
:1002E0000240984BB72702401367070498CB0100E0
:1002F000B7270240DC47858BE5FFB7270240944BC8
:10030000B727024001777D17758F98CB0100124403
:100310002101828001A001A001A001A001A001A0F3
:1003200001A001A001A001A001A001A001A001A0C5
:1003300001A001A001A001A001A001A001A001A0B5
:1003400001A001A001A001A001A0970100209381BC
:10035000614C138101FF173500001305655A97059D
:100360000020938525CA170600201306A6CA63FA43
:10037000C5008322050023A0550011059105E3EA7D
:10038000C5FE170500201305E5C893850183637733
:10039000B500232005001105E36DB5FE93020008AA
:1003A000739002308D4273904280970200009382D6
:1003B00062C593E2320073905230EF20B012972260
:1003C00000009382E2617390123473002030611157
:1003D00022C22000AA872E87A30DF4FEBA87230D20
:1003E000F4FE8347B4FF89EFB717014093870740B6
:1003F000D847B7170140938707406D9BD8C729A8F6
:10040000B717014093870740D847B7170140938734
:10041000074013674700D8C7B7170140D847B71739
:1004200001403D9BD8C70100B737014083D7870003
:10043000C207C183898BEDDBB73701400347A4FFB7
:10044000420741832396E7000100B737014083D775
:100450008700C207C18393F70708E5FBB717014080
:10046000D847B717014013670701D8C701001244E6
:1004700021018280411106C622C40008AA87A3096F
:10048000F4FE834734FF93E70704A309F4FE834790
:1004900034FFBE850145253F0100B24022444101A1
:1004A0008280411106C622C40008AA87A309F4FE6F
:1004B000834734FF93E7870293F7F70FBE85014523
:1004C00039370100B240224441018280411106C601
:1004D00022C40008AA87A309F4FE834734FF93E7E8
:1004E000070293F7F70FBE850145D5350100B240ED
:1004F000224441018280411106C622C40008AA8715
:10050000A309F4FE930510080145D135834734FF54
:10051000BE8501456D3D0100B2402244410182800B
:10052000511106C422C26000B7170140D847B7175F
:10053000014013670701D8C79305200E0145413DCF
:10054000B7170140D847B717014013670708D8C746
:1005500013054006EF00007EB7170140D847B717D4
:1005600001401377F7F7D8C71305401FEF00807CD1
:10057000B7170140D847B717014013670708D8C716
:1005800013054006EF00007B9305000A0145813505
:100590009305800C0145253D9305200A0145053D45
:1005A0001D45013719451D37B707002083C70700D0
:1005B0003E85913701457D3D9305F00A0145013D9A
:1005C00013054006EF0000779305600A01450135E9
:1005D0009305400A0145E53BB70700202388070043
:1005E000B7070020A38807000100A2401244310190
:1005F0008280411106C622C40008A30904FEB1A0EE
:10060000834734FF938707FB93F7F70FBE850145B8
:100610007D3B81450145653BC14501454D3B230976
:1006200004FE09A8814505455D33834724FF8507FE
:100630002309F4FE034724FF93073008E3F4E7FEA1
:10064000834734FF8507A309F4FE034734FFA1471E
:10065000E3F8E7FA01000100B24022444101828040
:10066000411106C622C40008AA872E87A309F4FEFA
:10067000BA872309F4FEB7070020034734FF238815
:10068000E700B7070020034724FFA388E70083475C
:1006900034FF3E87BA878607BA97860793F7F70F26
:1006A000F917A309F4FE830724FFBD8BE207E18756
:1006B00093E707FBE207E18793F7F70FBE85014554
:1006C0003933834734FF918393F7F70F93E707019B
:1006D00093F7F70FBE850145DD39834734FFBD8BA6
:1006E00093F7F70FBE850145DD310100B24022448A
:1006F00041018280611122C22000232CA4FE032725
:1007000084FFFD4763FEE700032784FF9307E007AC
:1007100063E8E700832784FF8117232CF4FE05A8F4
:10072000032784FF9307F00B63FFE700032784FF91
:100730009307F00F63E9E700832784FF9387F7F9B6
:10074000232CF4FE29A09307F00F232CF4FE83271B
:1007500084FF93F7F70F3E851244210182804111F7
:1007600006C622C40008AA87A309F4FE834734FF03
:100770003E854937AA87A309F4FE034734FF930750
:10078000F00F630DF70E034734FF8D679386074E16
:10079000BA878A07BA97B6978387070093F7F70F48
:1007A000BE8505452D31034734FF8D679386074E7F
:1007B000BA878A07BA97B6978387170093F7F70F18
:1007C000BE8505452931034734FF8D679386074E63
:1007D000BA878A07BA97B6978387270093F7F70FE8
:1007E000BE850545ED36034734FF8D679386074E7A
:1007F000BA878A07BA97B6978387370093F7F70FB8
:10080000BE850545E936034734FF8D679386074E5D
:10081000BA878A07BA97B6978387470093F7F70F87
:10082000BE8505456D36814505455536B70700201F
:1008300083C70701850713F7F70FB7070020238841
:10084000E700B707002003C70701D5476319F70280
:10085000B707002003C717019D476316F7008145BE
:100860000145FD3B29A8B707002083C7170185076D
:1008700093F7F70FBE850145E53311A00100B240A3
:10088000224441018280411106C622C40008232867
:10089000A4FE21A8832704FF83C707003E85C13536
:1008A000832704FF85072328F4FE832704FF83C7DB
:1008B0000700EDF301000100B240224441018280B3
:1008C000111106CC22CA60082322A4FE89679387EF
:1008D00007712328F4FEA30704FE832744FE63DB8D
:1008E00007001305D002A53D832744FEB307F0405F
:1008F0002322F4FE032744FEE1679385076A3A85C5
:10090000EFF01F81AA872322F4FE8DA0832504FF28
:10091000032544FEEFF04FFAAA872324F4FE832731
:1009200084FE6355F0008547A307F4FE832744FE49
:10093000832504FF3E85EFF0AFFDAA872322F4FE56
:10094000832704FFA9453E85EFF00FF7AA872328E8
:10095000F4FE8347F4FE99CB832784FE93F7F70FC9
:100960009387070393F7F70F3E85D53B832704FF53
:10097000E34EF0F88347F4FE81E713050003C53327
:100980000100E240524471018280311106C822C642
:1009900040082326A4FEA30904FE41A88327C4FE21
:1009A00085072326F4FE8327C4FE83C707009387A9
:1009B0000703A309F4FE034734FF9307F00B63E832
:1009C000E700834734FF93870704A309F4FE8327D6
:1009D000C4FE03C707008547631AF7008327C4FED8
:1009E00003C70700930710056307F700834734FF29
:1009F0003E85B53335A08327C4FE03C7070085476E
:100A00006315F7001305800A993B8327C4FE03C7CB
:100A10000700930710056315F7001305800B81335A
:100A20008327C4FE85072326F4FE8327C4FE83C7DD
:100A30000700ADF701000100C2403244510182803D
:100A4000311106C822C64008AA872E87A307F4FEE4
:100A5000BA872307F4FE8307F4FEBD8BE207E18724
:100A600093E707FBE207E18793F7F70FBE850145A0
:100A7000B93AC1450145A13A81450145893A8347C3
:100A8000E4FE918393F7F70FBD8B8DE3A30904FE7A
:100A900009A8F1450545253A834734FF8507A30991
:100AA000F4FE034734FFF947E3F5E7FE8347E4FE2E
:100AB000918393F7F70F13F7F70085476317F70450
:100AC0009305F0070545EFF09F908547A309F4FED5
:100AD00019A8930510040545EFF07F8F834734FF75
:100AE0008507A309F4FE034734FFED47E3F3E7FE70
:100AF0009305F0070545EFF09F8DF1450545EFF0B3
:100B00001F8DF1450545EFF09F8C8347E4FE9183EF
:100B100093F7F70F13F7F70089476311F70693056B
:100B2000F0070545EFF0BF8A8547A309F4FE19A831
:100B3000930510040545EFF09F89834734FF85072F
:100B4000A309F4FE034734FFBD47E3F3E7FE930533
:100B5000F0070545EFF0BF87C547A309F4FE11A8CC
:100B6000F1450545EFF0BF86834734FF8507A309AC
:100B7000F4FE034734FFF947E3F4E7FE9305F0077B
:100B80000545EFF0DF8493070002A309F4FE19A8DE
:100B9000930510040545EFF09F83834734FF8507D5
:100BA000A309F4FE034734FF9307E005E3F2E7FEF1
:100BB0009305F0070545EFF09F818347E4FEBD8B69
:100BC0009DE393070006A309F4FE11A8F14505452E
:100BD000EFF0EFFF834734FF8507A309F4FE830797
:100BE00034FFE3D507FE8347E4FE13F7F70085479C
:100BF0006319F704F1450545EFF06FFDF145054533
:100C0000EFF0EFFC9305F0070545EFF04FFC93077D
:100C10003006A309F4FE19A8930510040545EFF06A
:100C20000FFB834734FF8507A309F4FE034734FF16
:100C30009307E007E3F2E7FE9305F0070545EFF0C1
:100C40000FF98347E4FE13F7F70089476315F706AA
:100C500093070006A309F4FE11A8F1450545EFF03E
:100C60000FF7834734FF8507A309F4FE034734FFDA
:100C70009307F006E3F3E7FE9305F0070545EFF071
:100C80000FF593071007A309F4FE19A893051004A4
:100C90000545EFF0CFF3834734FF8507A309F4FE42
:100CA000034734FF9307E007E3F2E7FE9305F007FD
:100CB0000545EFF0CFF10100C2403244510182807E
:100CC000711122C040000100024411017300203064
:100CD000711122C0400001A0611122C22000232C0A
:100CE000A4FE832784FFFD8B0547B316F70037E783
:100CF00000E0832784FF9583938707048A07BA97C8
:100D000094C30100124421018280511122C4600069
:100D1000232CA4FEAE87A30BF4FE37E700E0832765
:100D200084FFBA97034774FF2380E7400100224401
:100D300031018280611122C22000AA87231DF4FEA6
:100D4000B70700200357A4FF2399E7000100B70766
:100D5000002083D72701E5FF010001001244210193
:100D60008280511106C422C26000B7F700E0D84368
:100D7000B7F700E0799BD8C3B707002083A78700A7
:100D80009305803E3E85EFF0AFB3AA873E87B7F765
:100D900000E07D1798CBB7F700E023A40700B7F772
:100DA00000E03D4798C385453145853731452D37AE
:100DB000B7170240984FB71702401367470398CF01
:100DC000B7170240944FB7170240096713071780FF
:100DD000558F98CFB7170240D84FB7170240136707
:100DE0001700D8CFB71701409443B7170140370712
:100DF00034337D17758F98C3B71701409443B717E5
:100E0000014037073333558F98C3B71701409443D8
:100E1000B717014037078008558F98C3B7170140AF
:100E2000938707409443B7170140938707407D7726
:100E30001307F73F758F98C3B71701409387074093
:100E40009843B7170140938707401367073098C34B
:100E5000B737014083D70700139707014183B7379E
:100E6000014013678700420741832390E700B737AB
:100E7000014083D7070093960701C182B73701402D
:100E80007177558F420741832390E700B7370140C0
:100E900083D70700139707014183B73701401367D2
:100EA0000730420741832390E700B737014083D7DB
:100EB0000700139707014183B737014013674704C1
:100EC000420741832390E700B71701409443B717C7
:100ED00001407D7713073733758F98C3B7170140EB
:100EE000D847B717014013677700D8C7B717014035
:100EF0009443B7170140056713078788558F98C338
:100F0000B7170140938707409443B7170140938771
:100F10000740370734FF4D17758F98C3B717014047
:100F200093870740D847B717014093870740136757
:100F30001703D8C7B7170140938707409443B717E3
:100F4000014093870740370788002107558F98C3D2
:100F5000B71701409443B717014051777D17758F3C
:100F600098C3B7170140D847B71701401367074028
:100F7000D8C7B71701409443B71701402167558F71
:100F800098C3B7170140938707409443B7170140B0
:100F90009387074051777D17758F98C3B717014026
:100FA000938707409443B7170140938707402D6705
:100FB000558F98C3B707004083D7070213970701DF
:100FC0004183B7070040136707014207418323901D
:100FD000E702B707004083D7870193960701C182D4
:100FE000B70700401D6713070780558F42074183ED
:100FF000239CE700B70700401307F04A2394E70259
:10100000B70700401307800C2396E702B70700409C
:10101000414798DFB707004083D7070013970701C0
:101020004183B707004013671708420741832390A5
:10103000E700B7170140938707409443B717014073
:1010400093870740370700F47D17758F98C3B7174C
:101050000140938707409443B717014093870740A7
:1010600037070003558F98C3B71701409387078050
:101070009443B7170140938707807D771307F73FA5
:10108000758F98C3B7170140938707809843B717A8
:101090000140938707801367073098C3B717014053
:1010A000938707809843B71701409387078013778A
:1010B000F7F398C3B7170140938707809843B71792
:1010C0000140938707801367070B98C3B717014048
:1010D00093870740984BB7170140938707401367E2
:1010E000070498CBB717014093870780D84BB717F1
:1010F00001409387078013674700D8CBB73701407B
:10110000938707C019671307F7DB2394E702B73704
:101110000140938707C009472396E702B73701408C
:10112000938707C083D7870193960701C182B7379A
:101130000140938707C01D67558F42074183239C59
:10114000E700B7370140938707C083D7070213979B
:1011500007014183B7370140938707C01367070131
:10116000420741832390E702B7370140938707C0C6
:10117000054798DFB7370140938707C083D7C7007B
:10118000139707014183B7370140938707C013675F
:101190001700420741832396E700B7370140938742
:1011A00007C083D7470493960701C182B737014030
:1011B000938707C06177558F420741832392E704E5
:1011C0009145130530029136130530023136010086
:1011D000A240124431018280711122C04000B70741
:1011E000002083A7470083970700139707014183D7
:1011F000B7070020938747022390E700B707002036
:1012000083A7470089078397070013970701418346
:10121000B7070020938747022391E700B707002014
:1012200083A747009107839707001397070141831E
:10123000B7070020938747022392E700B7070020F3
:1012400083A74700990783970700139707014183F6
:10125000B7070020938747022393E700B7070020D2
:1012600083A74700A10783970700139707014183CE
:10127000B7070020938747022394E700B7070020B1
:1012800083A74700A90783970700139707014183A6
:10129000B7070020938747022395E700B707002090
:1012A00083A74700B107839707001397070141837E
:1012B000B7070020938747022396E700B70700206F
:1012C0009387470203D707009307803E63F9E7003F
:1012D000B70700209387470215472390E700B70719
:1012E00000209387470203D72700896793870771F8
:1012F00063FAE700B7070020938747021307900BB4
:101300002391E700B70700209387470203D74700E0
:101310009307803E63F9E700B707002093874702F1
:1013200029472392E700B70700209387470203D796
:1013300067009307803E63F9E700B70700209387B3
:10134000470205472393E700B7070020938747022A
:1013500003D787009307800C63FAE700B7070020E4
:1013600093874702130730022394E700B707002052
:101370009387470203D7A7009307800C63F9E70020
:10138000B70700209387470241472395E700B70737
:1013900000209387470203D7C7009307800C63FAA6
:1013A000E700B7070020938747021307C00323967F
:1013B000E7000100024411018280511106C422C2DB
:1013C0006000EFE0BFE7B7470008138507FCEFE0D8
:1013D0003FEDB70700209387470283D70700BE85FC
:1013E000B7470008138507FCEFE0FFD4B7070020DC
:1013F0009387470283D72700BE85B7470008138528
:1014000027FCEFE05FD3B70700209387470283D71D
:101410004700BE85B7470008138547FCEFE0BFD102
:10142000B70700209387470283D76700BE85B74779
:101430000008138567FCEFE01FD0B70700209387F3
:10144000470283D78700BE85B7470008138587FC0E
:10145000EFE07FCEB70700209387470283D7A7002E
:10146000BE85B74700081385A7FCEFE0DFCCB707C0
:1014700000209387470283D7C700BE85B74700087F
:101480001385C7FCEFE03FCBEFE0BFDF0100A240D8
:10149000124431018280511106C422C26000B71784
:1014A0000140938707409C47858B639E074AB70797
:1014B000002003D787019307100363FDE724B707D4
:1014C000002003D787019307007D63E5E724B70772
:1014D000002083D787019305800C3E85EFE01FC174
:1014E000AA87C207C18389CBB707002003D787012A
:1014F000930720036310F72203C7C1808547631158
:10150000F70403C7D1808547631CF702B7070020A3
:101510009387470203D707009307300663E2E70289
:10152000B70700209387470283D7070085071397E3
:1015300007014183B7070020938747022390E70004
:1015400003C7C18085476311F70403C7D18089476A
:10155000631CF702B70700209387470203D72700D1
:101560009307703E63E2E702B707002093874702C4
:1015700083D727008507139707014183B70700200A
:10158000938747022391E70003C7C1808547631112
:10159000F70403C7D1808D47631CF702B70700200B
:1015A0009387470203D747009307300663E2E702B9
:1015B000B70700209387470283D747008507139713
:1015C00007014183B7070020938747022392E70072
:1015D00003C7C18085476311F70403C7D1809147D2
:1015E000631CF702B70700209387470203D7670001
:1015F0009307703E63E2E702B70700209387470234
:1016000083D767008507139707014183B707002039
:10161000938747022393E70003C7C180854763117F
:10162000F70403C7D1809547631CF702B707002072
:101630009387470203D787009307700C63E2E702A2
:10164000B70700209387470283D787008507139742
:1016500007014183B7070020938747022394E700DF
:1016600003C7C18085476311F70403C7D180994739
:10167000631CF702B70700209387470203D7A70030
:101680009307700C63E2E702B707002093874702D5
:1016900083D7A7008507139707014183B707002069
:1016A000938747022395E70003C7C18085476311ED
:1016B000F70403C7D1809D47631CF702B7070020DA
:1016C0009387470203D7C7009307700C63E2E702D2
:1016D000B70700209387470283D7C7008507139772
:1016E00007014183B7070020938747022396E7004D
:1016F00003C7C1808547631FF70003C7D180A14797
:10170000631AF7005D39C93C23860180A3860180F6
:1017100023A80180B707002003D787019307F07C37
:1017200063F4E722B707002003D78701C167FD17DD
:10173000630CF720B707002083D787019305800C3F
:101740003E85EFE0BF9AAA87C207C183639E071E4A
:1017500003C7C18085476311F70403C7D18085475C
:10176000631CF702B70700209387470203D70700DF
:101770009307A00563E2E702B707002093874702BB
:1017800083D70700A907139707014183B7070020F4
:10179000938747022390E70003C7C1808547631101
:1017A000F70403C7D1808947631CF702B7070020FD
:1017B0009387470203D727009307E03D63E2E702E0
:1017C000B70700209387470283D72700A9071397FD
:1017D00007014183B7070020938747022391E70061
:1017E00003C7C18085476311F70403C7D1808D47C4
:1017F000631CF702B70700209387470203D747000F
:101800009307A00563E2E702B7070020938747022A
:1018100083D74700A907139707014183B707002023
:10182000938747022392E70003C7C180854763116E
:10183000F70403C7D1809147631CF702B707002064
:101840009387470203D767009307E03D63E2E7020F
:10185000B70700209387470283D76700A90713972C
:1018600007014183B7070020938747022393E700CE
:1018700003C7C18085476311F70403C7D18095472B
:10188000631CF702B70700209387470203D787003E
:101890009307D00B63E2E702B70700209387470264
:1018A00083D78700A907139707014183B707002053
:1018B000938747022394E70003C7C18085476311DC
:1018C000F70403C7D1809947631CF702B7070020CC
:1018D0009387470203D7A7009307D00B63E2E70281
:1018E000B70700209387470283D7A700A90713975C
:1018F00007014183B7070020938747022395E7003C
:1019000003C7C18085476311F70403C7D1809D4792
:10191000631CF702B70700209387470203D7C7006D
:101920009307D00B63E2E702B707002093874702D3
:1019300083D7C700A907139707014183B707002082
:10194000938747022396E700B707002003D7870154
:101950009307200363F4E70023950180B707002075
:101960000547238AE700B71701409C47858B639C96
:101970000748B707002003D787019307100363F2D6
:10198000E724B707002003D787019307007D63EAA8
:10199000E722B707002083D787019305800C3E8597
:1019A000EFE0CFF4AA87C207C18389CBB707002035
:1019B00003D78701930720036315F72003C7C1806E
:1019C0008547631EF70203C7D18085476319F70275
:1019D000B70700209387470283D707008DC3B70757
:1019E00000209387470283D70700FD17139707014D
:1019F0004183B7070020938747022390E70003C77E
:101A0000C1808547631EF70203C7D18089476319E8
:101A1000F702B70700209387470283D727008DC3BB
:101A2000B70700209387470283D72700FD17139736
:101A300007014183B7070020938747022391E700FE
:101A400003C7C1808547631EF70203C7D1808D4756
:101A50006319F702B70700209387470283D747002F
:101A60008DC3B70700209387470283D74700FD1730
:101A7000139707014183B7070020938747022392FA
:101A8000E70003C7C18085476310F70403C7D1800F
:101A90009147631BF702B70700209387470203D7DC
:101AA0006700854763F2E702B70700209387470284
:101AB00083D76700FD17139707014183B7070020FD
:101AC000938747022393E70003C7C18085476310CC
:101AD000F70403C7D1809547631BF702B7070020BF
:101AE0009387470203D78700854763F2E702B7076A
:101AF00000209387470283D78700FD1713970701BC
:101B00004183B7070020938747022394E70003C768
:101B1000C18085476310F70403C7D1809947631BD1
:101B2000F702B70700209387470203D7A70085472E
:101B300063F2E702B70700209387470283D7A70025
:101B4000FD17139707014183B707002093874702CA
:101B50002395E70003C7C18085476310F70403C7D7
:101B6000D1809D47631BF702B70700209387470288
:101B700003D7C700854763F2E702B70700209387C2
:101B8000470283D7C700FD17139707014183B707A3
:101B90000020938747022396E70003C7C18085474B
:101BA0006311F70203C7D180A147631CF700EFF070
:101BB000DF80EFF06FE223860180A386018023A8F7
:101BC0000180B707002003D787019307007D63FDDD
:101BD000E720B707002003D78701C167FD1763051A
:101BE000F720B707002083D787019305800C3E8537
:101BF000EFE0CFCFAA87C207C1836397071E03C751
:101C0000C18085476310F70403C7D1808547631BF4
:101C1000F702B70700209387470203D70700A547BD
:101C200063F2E702B70700209387470283D70700D4
:101C3000D917139707014183B707002093874702FD
:101C40002390E70003C7C18085476310F70403C7EB
:101C5000D1808947631BF702B707002093874702AB
:101C600003D72700A94763F2E702B707002093874D
:101C7000470283D72700D917139707014183B70776
:101C80000020938747022391E70003C7C18085475F
:101C90006310F70403C7D1808D47631BF702B707B2
:101CA00000209387470203D74700A54763F2E70266
:101CB000B70700209387470283D74700D9171397A8
:101CC00007014183B7070020938747022392E7006B
:101CD00003C7C18085476310F70403C7D1809147CC
:101CE000631BF702B70700209387470203D76700FB
:101CF000A94763F2E702B70700209387470283D71B
:101D00006700D917139707014183B707002093870E
:101D100047022393E70003C7C18085476310F70498
:101D200003C7D1809547631BF702B707002093874D
:101D3000470203D78700A94763F2E702B7070020ED
:101D40009387470283D78700D917139707014183E9
:101D5000B7070020938747022394E70003C7C18099
:101D600085476310F70403C7D1809947631BF702C7
:101D7000B70700209387470203D7A700A94763F25C
:101D8000E702B70700209387470283D7A700D91738
:101D9000139707014183B7070020938747022395D4
:101DA000E70003C7C18085476310F70403C7D180EC
:101DB0009D47631BF702B70700209387470203D7AD
:101DC000C700A94763F2E702B707002093874702DD
:101DD00083D7C700D917139707014183B70700209E
:101DE000938747022396E700B707002003D78701B0
:101DF0009307200363F4E70023950180B7070020D1
:101E00000547238AE700B71701409C47918BADE354
:101E1000B707002003D787019307200363F5E70482
:101E2000B707002003D78701C167FD17630DF702CD
:101E300083A701818DEB05472386E18003C7D1800D
:101E4000854763FAE70083C7D180FD1713F7F70FC3
:101E5000A386E18021A02147A386E180B707002067
:101E60007D57239CE700B70700200547238AE7003A
:101E7000B7170140938707409C47C18BADE3B70775
:101E8000002003D787019307200363F5E704B70712
:101E9000002003D78701C167FD17630DF70283A7F1
:101EA00001818DEB05472386E18003C7D1809D47E3
:101EB00063EAE70083C7D180850713F7F70FA3868E
:101EC000E18021A00547A386E180B70700207D5768
:101ED000239CE700B70700200547238AE700B717D0
:101EE0000140938707409C4793F70702B1E3B70788
:101EF000002003D787019307200363F6E7022386B8
:101F00000180A386018083A7018199C3EFE06FEE72
:101F1000B70700209387470203D7A700B707004001
:101F200098DF23A80180B70700200547238AE70030
:101F3000B71701409C47898BB5E3B707002003D74B
:101F400087019307200363F3E70483A701819DEFD3
:101F5000B707002003D78701C167FD176308F702A1
:101F6000EFE02FE9B70700209387470203D7A700C8
:101F7000B707004098DF23860180A38601800947C8
:101F800023A8E180B7070020239C0700B7070020A3
:101F90000547238AE700094723A8E180B7170140D6
:101FA000938707409C47858B8DCFB7170140938758
:101FB00007409C47C18B95C7B71701409C47858B4D
:101FC0008DC3B71701409C47898B81CFB71701405C
:101FD000938707409C4793F7070281C7B7170140D3
:101FE0009C47B7070020A38007000100A2401244CD
:101FF00031018280511106C422C26000B70700205F
:1020000083C7470163810746C5450145EFE05FA3EC
:1020100085450945EFE0CFE403C7D18085476312CA
:10202000F70203C7C1808547631BF70203C7D1804E
:1020300085476316F70203D7A1809307301F63E03B
:10204000E702B70700209387470283D707003E8542
:10205000EFE01F878D671385C736EFE0DF8203C788
:10206000C18085476312F70203C7D1808547631D8E
:10207000F70003D7A1809307301F63F7E7008D6750
:1020800013850737EFE03F8085452945EFE04FDDB9
:1020900003C7D18089476312F70203C7C180854710
:1020A000631BF70203C7D18089476316F70203D782
:1020B000A1809307301F63E0E702B70700209387F2
:1020C000470283D727003E85EFE08FFF8D6713859A
:1020D000C736EFE04FFB03C7C18085476312F702A5
:1020E00003C7D1808947631DF70003D7A1809307F9
:1020F000301F63F7E7008D6713850737EFE0AFF810
:1021000085454945EFE0CFD503C7D1808D476312A0
:10211000F70203C7C1808547631BF70203C7D1805D
:102120008D476316F70203D7A1809307301F63E042
:10213000E702B70700209387470283D747003E8511
:10214000EFE00FF88D671385C736EFE0CFF303C7D5
:10215000C18085476312F70203C7D1808D47631D95
:10216000F70003D7A1809307301F63F7E7008D675F
:1021700013850737EFE02FF18D450545EFE04FCE92
:102180008D6713858737EFE05F808D67138507388C
:10219000EFE06FEF8D6713854738EFE00FFF8D6736
:1021A0001385C738EFE02FEE03C7D1809147631244
:1021B000F70203C7C1808547631BF70203C7D180BD
:1021C00091476316F70203D7A1809307301F63E09E
:1021D000E702B70700209387470283D767003E8551
:1021E000EFE00FEE8D6713850739EFE0CFE903C706
:1021F000C18085476312F70203C7D1809147631DF1
:10220000F70003D7A1809307301F63F7E7008D67BE
:1022100013850737EFE02FE78D453145EFE04FC4D9
:102220008D6713854739EFE04FF68D671385C73803
:10223000EFE06FE503C7D18095476312F70203C74C
:10224000C1808547631BF70203C7D180954763169A
:10225000F70203D7A1809307301F63E0E702B707B7
:1022600000209387470283D787003E85EFE04FE544
:102270008D6713850739EFE00FE103C7C1808547FC
:102280006312F70203C7D1809547631DF70003D798
:10229000A1809307301F63F7E7008D671385073729
:1022A000EFE06FDE83A70181639F071A914519450F
:1022B000EFE00FBB8D6713854739EFE00FED8D67BA
:1022C00013850739EFE02FDC8D671385C739EFE001
:1022D000CFEB8D6713850739EFE0EFDA03C7D180C5
:1022E00099476312F70203C7C1808547631BF70252
:1022F00003C7D18099476316F70203D7A1809307DC
:10230000301F63E0E702B70700209387470283D7B7
:10231000A7003E85EFE0CFDA8D6713850739EFE040
:102320008FD603C7C18085476312F70203C7D180E8
:102330009947631DF70003D7A1809307301F63F708
:10234000E7008D671385C73AEFE0EFD39545194550
:10235000EFE00FB18D6713854739EFE00FE38D672D
:1023600013850739EFE02FD28D671385C73BEFE068
:10237000CFE18D6713850739EFE0EFD003C7D18038
:102380009D476312F70203C7C1808547631BF702AD
:1023900003C7D1809D476316F70203D7A180930737
:1023A000301F63E0E702B70700209387470283D717
:1023B000C7003E85EFE0CFD08D6713850739EFE08A
:1023C0008FCC03C7C18085476312F70203C7D18052
:1023D0009D47631DF70003D7A1809307301F63F764
:1023E000E7008D671385C73CEFE0EFC99D450545C4
:1023F000EFE00FA703C7D180A1476312F70203C71D
:10240000C1808547631CF70203C7D180A1476317CA
:10241000F70203D7A1809307301F63E1E7028D67BE
:102420001385473DEFE06FD68D6713850739EFE0E1
:102430008FC58D671385873EEFE02FD503C7C18019
:1024400085476312F70203C7D180A147631DF700D8
:1024500003D7A1809307301F63F7E7008D671385CB
:10246000C73FEFE04FC20100A24012443101828019
:10247000711122C0400003C7C18085476310F70275
:1024800003C7D1809547631BF700B70700209387E8
:10249000470203D78700B707004098DF03C7C18012
:1024A0008547631AF70203C7D1809947630CF70089
:1024B00003C7D180A1476307F70003C7D1809147C5
:1024C00063EBE700B70700209387470203D7A70015
:1024D000B707004098DF03C7C18085476310F70244
:1024E00003C7D1809D47631BF700B7070020938780
:1024F000470203D7C700B707004098DF0100024436
:1025000011018280411106C622C40008EFE06F8EDF
:10251000B70700209387470283D72700638B074ABA
:10252000B70700209387470283D767006383074A72
:10253000B717014093870740D84BB71701409387DF
:10254000074013670704D8CB0545EFE0AFFEB70798
:1025500000209387470203D7A700B707004098DF02
:102560001305401FEFE00FFD85451145EFE04F8F4C
:102570008D6713850741EFE04FC18D6713850742D3
:10258000EFE06FB0B70700209387470283D767005B
:102590002319F4FE5DAEB7170140938707409C47AF
:1025A00093F707029DEFB717014093870740984BB9
:1025B000B7170140938707401367070498CBB70705
:1025C00000209387470203D7A700B707004098DF92
:1025D00023A801801305803EEFE0CFF5EFE06F8187
:1025E000D5AEB717014093870780D84BB717014086
:1025F0009387078013674700D8CB0545EFE08FF33B
:10260000B70700209387470283D70700D9CFB707C2
:1026100000209387470283D707003E85EF00D04113
:102620002A878D6783A5C74D3A85EF00207FAA874B
:102630003E85EF00102E2A8723A4E18223860182A3
:10264000B7370140938707C083D707001397070167
:102650004183B7370140938707C0136717004207CC
:1026600041832390E700010083C7C18293C717000D
:1026700093F7F70FF5FBB70700209387470203D7BF
:102680008700B707004098DF1305401FEFE08FEA8F
:10269000B70700209387470203D7A700B70700407A
:1026A00098DF1305401FEFE0EFE82945EFE08FE8E2
:1026B000B70700209387470283D72700ADC7B70726
:1026C00000209387470283D727003E85EF0090299B
:1026D0002A878D6783A5C74D3A85EF002074AA87A6
:1026E0003E85EF0010232A8723A4E18223860182FE
:1026F000B7370140938707C083D7070013970701B7
:102700004183B7370140938707C01367170042071B
:1027100041832390E700010083C7C18293C717005C
:1027200093F7F70FF5FB2945EFE0CFE0B70700205F
:102730009387470283D74700D9CFB70700209387F5
:10274000470203D78700B707004098DF1305401FF3
:10275000EFE04FDEB70700209387470203D7A700BB
:10276000B707004098DF1305401FEFE0AFDCB70765
:1027700000209387470283D747003E85EF00D02B88
:102780002A878D6783A5C74D3A85EF002069AA8700
:102790003E85EF0010182A8723A4E1822386018258
:1027A000B7370140938707C083D707001397070106
:1027B0004183B7370140938707C01367170042076B
:1027C00041832390E700010083C7C18293C71700AC
:1027D00093F7F70FF5FBB70700209387470203D75E
:1027E000C700B707004098DF1305401FEFE08FD404
:1027F000B70700209387470203D7A700B707004019
:1028000098DFB717014093870780984BB7170140AF
:10281000938707801367470098CB2945EFE08FD156
:102820001307B00B23A4E18223860182B73701404E
:10283000938707C083D70700139707014183B737F2
:102840000140938707C01367170042074183239015
:10285000E700010083C7C18293C7170093F7F70F02
:10286000F5FBB717014093870780D84BB717014096
:102870009387078013674700D8CB13052003EFE049
:102880006FCB1307B00B23A4E18223860182B737F5
:102890000140938707C083D707001397070141833F
:1028A000B7370140938707C013671700420741837A
:1028B0002390E700010083C7C18293C7170093F7F5
:1028C000F70FF5FB2945EFE0EFC689450545EFD049
:1028D0003FD98D6713854742EFE02F8B8D671385B6
:1028E000C738EFD05FFA835724FFFD173E85EFD03E
:1028F0003FFD8D6713850739EFD0FFF88D450545FE
:10290000EFD01FD68D6713858743EFE00F888D6763
:102910001385C738EFD03FF7B707002093874702EA
:1029200083D767003E87835724FFB307F7408507A7
:102930003E85EFD0FFF88D6713850739EFD0BFF4E0
:10294000835724FFFD172319F4FE835724FFE394D4
:1029500007C4B717014093870740984BB71701404A
:10296000938707401367070498CB23A801809545F8
:102970000545EFD0FFCE8D6713858744EFE0EF80EC
:102980008D6713850739EFD01FF08D671385C74515
:10299000EFD0BFFF8D6713850739EFD0DFEE994584
:1029A0000545EFD0FFCB8D671385C746EFD0FFFD00
:1029B0008D6713850739EFD01FED8D6713850748A5
:1029C000EFD0BFFC1305007DEFE0CFB6EFD07FC2A4
:1029D00011A00100B240224441018280511106C47D
:1029E00022C26000EFE0EFB7EFD09FB3EFD07FC01F
:1029F0008D451145EFD0DFC68D6713850749EFD0B0
:102A0000DFF88D6713850739EFD0FFE78D671385F2
:102A1000074AEFD09FF78D6713850739EFD0BFE6E0
:102A20008D671385874AEFD01FE691451945EFD092
:102A30003FC38D671385074BEFD0FFE4B717014005
:102A4000938707409C4793F70702D1EB99451145BF
:102A5000EFD01FC18D671385C74BEFD01FF38D6774
:102A600013850739EFD03FE28D671385874CEFD090
:102A7000DFF1B70700209387470215472390E7004F
:102A8000B7070020938747021307900B2391E700B5
:102A9000B70700209387470229472392E700B7072B
:102AA00000209387470205472393E700B7070020DC
:102AB00093874702130730022394E700B7070020EB
:102AC0009387470241472395E700B7070020938784
:102AD00047021307C0032396E700EFE01F8E8567C8
:102AE000138587BBEFE00FA5EFD0BFB0EFE0CFEECF
:102AF000B70700209387470203D7A700B707004016
:102B000098DFB707002083C7170099C3EFE0BF988D
:102B1000EFF04FCEEFF0DF9503A701818947E31275
:102B2000F7FEEFF03F9EF1BF711122C04000B707E2
:102B3000002083D7270189CFB707002083D727013B
:102B4000FD17139707014183B70700202399E7007A
:102B500003D7A1809307703E63EBE70083D7A18082
:102B600085071397070141832395E18019A02395D9
:102B70000180B707002003D767019307700C63EF4C
:102B8000E700B707002083D7670185071397070180
:102B90004183B7070020239BE70011A8B707002057
:102BA000239B0700B70700200547238AE700B717D4
:102BB0000140938707409C47858B9DCFB717014005
:102BC000938707409C47C18B85CBB71701409C4733
:102BD000858B9DC3B71701409C47898B91CFB71751
:102BE0000140938707409C4793F7070291C7B717A7
:102BF00001409C47918B95E7B707002003D78701D9
:102C0000C167FD176303F702B707002083D7870169
:102C10008507139707014183B7070020239CE7002E
:102C200029A0B7070020239C0700B707002005470D
:102C3000A380E700B7F700E023A2070001000244E9
:102C4000110173002030711122C04000B7370140DC
:102C5000938707C083D70701C207C183858BB5CF90
:102C600083A741821387170023A2E182B73701406F
:102C7000938707C083D70701139707014183B737AD
:102C80000140938707C0799B420741832398E7005F
:102C900003A7418283A781826361F704B7370140AC
:102CA000938707C083D70700139707014183B7377E
:102CB0000140938707C0799B420741832390E70037
:102CC00005472386E18223A2018223A40182B7372C
:102CD0000140938707C023920702010002441101BB
:102CE00073002030511106C422C26000B7170240A1
:102CF0009843B71702401367170098C3B7170240ED
:102D0000D443B71702403707FFFC758FD8C3B717F6
:102D100002409443B71702403707F7FE7D17758FBF
:102D200098C3B71702409443B71702403707FCFF18
:102D30007D17758F98C3B7170240D443B717024069
:102D400041777D17758FD8C3B717024037079F00AB
:102D500098C731200100A2401244310182805111F4
:102D600006C422C2600031200100A2401244310199
:102D70008280711122C04000B72702409843B727D4
:102D80000240719B98C3B72702409843B72702407F
:102D90001367170098C337170240B717024058430C
:102DA000D8C3B7170240D443B717024041777D1705
:102DB000758FD8C337170240B71702405843D8C39E
:102DC000B71702409443B717024037070001558FE9
:102DD00098C30100B71702409843B7070002F98F64
:102DE000F5DBB7170240D843B7170240719BD8C331
:102DF000B7170240D843B717024013672700D8C35C
:102E00000100B7170240DC4313F7C700A147E31ADC
:102E1000F7FE01000100024411018280011126CA5F
:102E2000935475011316950006CE22CC93F4F40F3B
:102E300025829356F501638504109307F00F63868E
:102E4000F4100E06B70700045D8E938414F8014752
:102E5000814393D775011394950093F7F70F25805D
:102E6000FD81F9C31305F00F638DA704938717F84D
:102E7000B3829700370500040E0493841200498C36
:102E800026C029458147634AE50E33C3B60089460B
:102E90001A8563C7E6047D17854563E5E514638CF1
:102EA000D70A05472A83639FE70481470145F2401B
:102EB0006244DE075D8D7E03D244336565000561A3
:102EC00082809382F40F49CC9384041033C3B600FC
:102ED00026C013673700A9441A8563C3E4228D47CF
:102EE00085463397E6009376075399CE89476384E6
:102EF000F3068D476384F3029E87054732842A8355
:102F0000E385E7FA824295A29376072481EA137754
:102F1000870869CB2E852286BE83C9BF01439307EC
:102F2000F00F3705400061B751E0A682938412008C
:102F300013671700294526C08547E358E5F435A8EF
:102F400021E611478144854329B715EA21479304B7
:102F5000F00F8943FDBD2A839307F00F014581BF20
:102F6000938704103EC013672700294539438947DA
:102F7000E35DE5F02D47E30FE3F8368585BF314784
:102F80009304F00F8D43F1B532852EC436C232C0A2
:102F9000BD2602469307B5FF9304A0F89246A245CA
:102FA0003316F600898C0147814365B5228532C806
:102FB0001EC63AC42EC236C099269307B5FF338584
:102FC000A4409302A5F82247938412008246294523
:102FD00026C03314F4009245B24342468147E3567B
:102FE000E5EA61BFC1639387F3FF3377F600935639
:102FF0000601E18F1356040136C2B2843A85BE85BC
:10300000EFD00F8A2A8426C43A85A685EFD04F894F
:1030100092442A87BE852685EFD08F88AA87A2454D
:103020002685EFD0EF87935604013E97369763735A
:10303000F7001E95C166FD16B377D700758CC207E1
:10304000A2979396670013540701E9833337D000A2
:103050002A94D98F1A045D8CB7070008E18F91C7B5
:1030600082429357140005885D8C9387F207635F53
:10307000F0021377740019C71377F40091466303C5
:10308000D700110437070008618F19C7B70700F888
:10309000FD177D8C938702081307E00F6349F7043F
:1030A00013156400258193F7F70F11B5054799C7EC
:1030B0001D8FED4681470145E3CBE6DE9382E209B1
:1030C000B3125400B357E40033375000D98F13F7CD
:1030D000770019C713F7F70091466303D7009107EC
:1030E000370700047D8F01CB85470145C9B393079E
:1030F000F00F01456DBB9A0713D59700814745BB7B
:10310000BD42014337054000E30357DA2D438D47A5
:1031100095B513577501370680009307F6FF1377AF
:10312000F70F9305E007B3F6A7009357F5010145A4
:1031300063D3E50091C382809307E0097D55E3CC1A
:10314000E7FE93055009B3E7C60063D7E500130512
:10315000A7F63395A700828013056009198D33D532
:10316000A7008280511106C422C226C021C1135774
:10317000F541B344A700998CAA87268513D4F7019B
:10318000BD2AAA861305E009B307D54013076009D5
:10319000634BF7022147638BE608138586FF33975D
:1031A000A4002607258313F5F70F21A0014401454C
:1031B0000147A2409317F40112445E05598D8244E1
:1031C0005D8D31018280130790096344F704154730
:1031D0001386B6FF6384E600B394C400370600FC90
:1031E0007D1693F5740033F7C40099CDBD889145E1
:1031F000638CB4001107B7050004F98D91C5130560
:10320000F009718FB307D5401A07258313F5F70F1F
:103210004DB71387B60115463397E400158E33D6A4
:10322000C4003337E000B364E6004DBF1397940049
:10323000258313056009B5BF21C1511122C206C4FF
:103240002A847528AA861305E009B307D540130719
:1032500060096348F7022147638DE608138586FFFE
:103260003317A4002607258313F5F70FA240124455
:103270005E05598D31018280014501475E05598DFA
:103280008280130790096349F70415471386B6FF38
:103290006384E6003314C400370600FC7D16937582
:1032A00074003377C40099CD3D889145630CB40018
:1032B0001107B7050004F98D91C51305F009718F49
:1032C000B307D540A24012441A0713F5F70F258320
:1032D0005E05598D310182801386B601154733167C
:1032E000C400158F3336C0003357E4003364E60062
:1032F00065B71317940025831305600985BFC1675F
:103300006376F5029337051093C717008E071307EE
:1033100000021D8F3355F500970700009387474E35
:10332000AA9703C507003305A7408280B7070001AD
:103330006370F502C1473355F50097070000938786
:10334000274CAA9703C5070041473305A740828051
:10335000E1473355F500970700009387674AAA971E
:1033600003C5070021473305A740828020200000C5
:103370002020202020000000D09AD0BED0BB00002A
:103380002D000000D0B2D0BE000000003A200000A6
:1033900020000000D09DD0BED0B60000D0BED182AB
:1033A000D0BAD180D18BD182000000002020202013
:1033B000202020202020202020000000D0B7D0B0E6
:1033C000D0BAD180D18BD1820000000020202020F3
:1033D00020202000D0A1D0BED185D180D0B0D0BDDA
:1033E000D0B8D182D18C0000D0BDD0B0D181D182F3
:1033F000D180D0BED0B9D0BAD0B8000020202020D3
:1034000020202020202020202020202020202000DC
:10341000D0A0D0B0D0B1D0BED182D0B0D18E00007B
:103420002E2E2E00D09ED181D182D0B0D0BBD0BE66
:10343000D181D18C00000000D0A1D0B4D0B5D0BBD8
:10344000D0B0D0BDD0BE0000D092D0BAD0B0D0BBEA
:10345000D18BD0B2D0B0D18ED1820000D180D0BE7D
:10346000D0B1D0BED182D18B00000000D181D187F4
:10347000D0B0D181D182D0BBD0B8D0B20000000092
:10348000D0B8D0BDD0B6D0B5D0BDD0B5D1800000B9
:10349000D092D0B5D180D181D0B8D18F00000000BA
:1034A000D09FD09E00000000302E3939000000006F
:1034B00030332F31302F323032340000D0A1D0B130
:1034C000D180D0BED1810000D0BDD0B0D181D18219
:1034D000D180D0BED0B5D0BA000000000000C840F6
:1034E000000000000000002F00000007000700148B
:1034F0007F147F14242A7F2A12231308646236491A
:103500005522500E1111110E001C224100004122C3
:103510001C0014083E081408083E0808000050303B
:103520000008080808080060600000201008040275
:103530003E5149453E00427F40004261514946218B
:1035400041454B311814127F1027454545393C4AF7
:103550004949300171090503364949493606494947
:10356000291E003636000000563600000707070700
:10357000071414141414707070707002015109064D
:10358000324959513E7E1111117E7F494949363EDB
:10359000414141227F4141221C7F494949417F09E4
:1035A0000909013E4149497A7F0808087F00417FA7
:1035B00041002040413F017F081422417F404040AC
:1035C000407F020C027F7F0408107F3E4141413E54
:1035D0007F090909063E4151215E7F0919294646A6
:1035E0004949493101017F01013F4040403F1F20CF
:1035F00040201F3F4038403F6314081463070870A1
:1036000008076151494543007F4141000204081009
:10361000200041417F00040201020440404040403C
:10362000000102040020545454787F484444383840
:1036300044444420384444487F3854545418087E45
:103640000901020C5252523E7F0804047800447D66
:1036500040002040443D007F1028440000417F404E
:10366000007C041804787C08040478384444443806
:103670007C14141408081414187C7C0804040848EA
:1036800054545420043F4440203C4040207C1C20A3
:1036900040201C3C4030403C44281028440C5050F2
:1036A000503C4464544C44080836414100007F00BB
:1036B00000414136080802010202017E1111117E0B
:1036C0007F494949337F494949367F01010103E078
:1036D000514F41FF7F4949494977087F0877494958
:1036E0004949367F1008047F7C2112097C7F081429
:1036F000224120413F017F7F020C027F7F080808A2
:103700007F3E4141413E7F0101017F7F090909065A
:103710003E4141412201017F0101274848483F1CA9
:10372000227F221C63140814637F404040FF070877
:1037300008087F7F407F407F7F407F40FF017F48B8
:1037400048307F4830007F7F484830002241494957
:103750003E7F083E413E462919097F205454547843
:103760003C4A4A49317C545428007C0404040CE04F
:10377000544C44FC38545454086C107C106C444431
:103780005454287C2010087C78422412787C10281D
:10379000440020443C047C7C0810087C7C10101001
:1037A0007C38444444387C0404047C7C141414089D
:1037B000384444444404047C04040C5050503C18E5
:1037C000247E241844281028447C404040FC0C10DF
:1037D00010107C7C407C407C7C407C40FC047C5015
:1037E00050207C5020007C7C5050200028445454B1
:1037F000387C10384438085434147C00000102022C
:103800000303030304040404040404040505050578
:103810000505050505050505050505050606060654
:103820000606060606060606060606060606060638
:103830000606060606060606060606060707070724
:103840000707070707070707070707070707070708
:1038500007070707070707070707070707070707F8
:1038600007070707070707070707070707070707E8
:1038700007070707070707070707070708080808D4
:1038800008080808080808080808080808080808B8
:1038900008080808080808080808080808080808A8
:1038A0000808080808080808080808080808080898
:1038B0000808080808080808080808080808080888
:1038C0000808080808080808080808080808080878
:1038D0000808080808080808080808080808080868
:1038E0000808080808080808080808080808080858
:0C38F0000808080808080808080808086C
:1038FC001A010000C03F0008006CDC020000000050
:00000001FF
